{
  "_format": "hh-sol-artifact-1",
  "contractName": "CredentialsDB",
  "sourceName": "contracts/CredentialsDB.sol",
  "abi": [
    {
      "inputs": [
        {
          "internalType": "address",
          "name": "_verifier",
          "type": "address"
        }
      ],
      "stateMutability": "nonpayable",
      "type": "constructor"
    },
    {
      "anonymous": false,
      "inputs": [
        {
          "indexed": false,
          "internalType": "uint32",
          "name": "credentialNo",
          "type": "uint32"
        }
      ],
      "name": "CredentialSavedInRegister",
      "type": "event"
    },
    {
      "anonymous": false,
      "inputs": [
        {
          "indexed": false,
          "internalType": "uint256",
          "name": "leaf",
          "type": "uint256"
        },
        {
          "indexed": false,
          "internalType": "uint256",
          "name": "root",
          "type": "uint256"
        }
      ],
      "name": "LeafInserted",
      "type": "event"
    },
    {
      "anonymous": false,
      "inputs": [
        {
          "indexed": true,
          "internalType": "address",
          "name": "previousOwner",
          "type": "address"
        },
        {
          "indexed": true,
          "internalType": "address",
          "name": "newOwner",
          "type": "address"
        }
      ],
      "name": "OwnershipTransferred",
      "type": "event"
    },
    {
      "inputs": [],
      "name": "TREE_DEPTH",
      "outputs": [
        {
          "internalType": "uint32",
          "name": "",
          "type": "uint32"
        }
      ],
      "stateMutability": "view",
      "type": "function"
    },
    {
      "inputs": [],
      "name": "credentialsCounter",
      "outputs": [
        {
          "internalType": "uint32",
          "name": "",
          "type": "uint32"
        }
      ],
      "stateMutability": "view",
      "type": "function"
    },
    {
      "inputs": [
        {
          "internalType": "uint256",
          "name": "",
          "type": "uint256"
        }
      ],
      "name": "credentialsRegister",
      "outputs": [
        {
          "internalType": "string",
          "name": "",
          "type": "string"
        }
      ],
      "stateMutability": "view",
      "type": "function"
    },
    {
      "inputs": [],
      "name": "credentialsSchema",
      "outputs": [
        {
          "internalType": "string",
          "name": "",
          "type": "string"
        }
      ],
      "stateMutability": "view",
      "type": "function"
    },
    {
      "inputs": [],
      "name": "credentialsSchemaSet",
      "outputs": [
        {
          "internalType": "bool",
          "name": "",
          "type": "bool"
        }
      ],
      "stateMutability": "view",
      "type": "function"
    },
    {
      "inputs": [],
      "name": "getLeavesArray",
      "outputs": [
        {
          "internalType": "uint256[]",
          "name": "",
          "type": "uint256[]"
        }
      ],
      "stateMutability": "view",
      "type": "function"
    },
    {
      "inputs": [],
      "name": "getMerkleRoot",
      "outputs": [
        {
          "internalType": "uint256",
          "name": "",
          "type": "uint256"
        }
      ],
      "stateMutability": "view",
      "type": "function"
    },
    {
      "inputs": [
        {
          "internalType": "uint256",
          "name": "",
          "type": "uint256"
        }
      ],
      "name": "leavesArray",
      "outputs": [
        {
          "internalType": "uint256",
          "name": "",
          "type": "uint256"
        }
      ],
      "stateMutability": "view",
      "type": "function"
    },
    {
      "inputs": [],
      "name": "owner",
      "outputs": [
        {
          "internalType": "address",
          "name": "",
          "type": "address"
        }
      ],
      "stateMutability": "view",
      "type": "function"
    },
    {
      "inputs": [],
      "name": "renounceOwnership",
      "outputs": [],
      "stateMutability": "nonpayable",
      "type": "function"
    },
    {
      "inputs": [
        {
          "internalType": "string",
          "name": "data",
          "type": "string"
        },
        {
          "internalType": "uint256",
          "name": "leaf",
          "type": "uint256"
        }
      ],
      "name": "saveCredential",
      "outputs": [],
      "stateMutability": "nonpayable",
      "type": "function"
    },
    {
      "inputs": [
        {
          "internalType": "string",
          "name": "schema",
          "type": "string"
        }
      ],
      "name": "setCredentialsSchema",
      "outputs": [],
      "stateMutability": "nonpayable",
      "type": "function"
    },
    {
      "inputs": [
        {
          "internalType": "address",
          "name": "newOwner",
          "type": "address"
        }
      ],
      "name": "transferOwnership",
      "outputs": [],
      "stateMutability": "nonpayable",
      "type": "function"
    },
    {
      "inputs": [],
      "name": "tree",
      "outputs": [
        {
          "internalType": "uint256",
          "name": "depth",
          "type": "uint256"
        },
        {
          "internalType": "uint256",
          "name": "root",
          "type": "uint256"
        },
        {
          "internalType": "uint256",
          "name": "numberOfLeaves",
          "type": "uint256"
        }
      ],
      "stateMutability": "view",
      "type": "function"
    },
    {
      "inputs": [],
      "name": "verifier",
      "outputs": [
        {
          "internalType": "address",
          "name": "",
          "type": "address"
        }
      ],
      "stateMutability": "view",
      "type": "function"
    },
    {
      "inputs": [
        {
          "internalType": "uint256",
          "name": "i",
          "type": "uint256"
        }
      ],
      "name": "viewArray",
      "outputs": [
        {
          "internalType": "string",
          "name": "",
          "type": "string"
        }
      ],
      "stateMutability": "view",
      "type": "function"
    }
  ],
  "bytecode": "0x60806040526000600260006101000a81548160ff0219169083151502179055506000600a60006101000a81548163ffffffff021916908363ffffffff1602179055503480156200004e57600080fd5b50604051620017c1380380620017c1833981810160405281019062000074919062000286565b62000094620000886200015060201b60201c565b6200015860201b60201c565b600373__$0c6eb7207c37accf1552a1c47686411ac0$__631095fbb49091601060006040518463ffffffff1660e01b8152600401620000d6939291906200035f565b60006040518083038186803b158015620000ef57600080fd5b505af415801562000104573d6000803e3d6000fd5b5050505080600260016101000a81548173ffffffffffffffffffffffffffffffffffffffff021916908373ffffffffffffffffffffffffffffffffffffffff160217905550506200039c565b600033905090565b60008060009054906101000a900473ffffffffffffffffffffffffffffffffffffffff169050816000806101000a81548173ffffffffffffffffffffffffffffffffffffffff021916908373ffffffffffffffffffffffffffffffffffffffff1602179055508173ffffffffffffffffffffffffffffffffffffffff168173ffffffffffffffffffffffffffffffffffffffff167f8be0079c531659141344cd1fd0a4f28419497f9722a3daafe3b4186f6b6457e060405160405180910390a35050565b600080fd5b600073ffffffffffffffffffffffffffffffffffffffff82169050919050565b60006200024e8262000221565b9050919050565b620002608162000241565b81146200026c57600080fd5b50565b600081519050620002808162000255565b92915050565b6000602082840312156200029f576200029e6200021c565b5b6000620002af848285016200026f565b91505092915050565b8082525050565b600063ffffffff82169050919050565b6000819050919050565b6000819050919050565b600062000304620002fe620002f884620002bf565b620002d9565b620002cf565b9050919050565b6200031681620002e3565b82525050565b6000819050919050565b600062000347620003416200033b846200031c565b620002d9565b620002cf565b9050919050565b620003598162000326565b82525050565b6000606082019050620003766000830186620002b8565b6200038560208301856200030b565b6200039460408301846200034e565b949350505050565b61141580620003ac6000396000f3fe608060405234801561001057600080fd5b50600436106101005760003560e01c806376694ce411610097578063bde7e56811610066578063bde7e56814610279578063f1650536146102a9578063f2fde38b146102c7578063fd54b228146102e357610100565b806376694ce4146102035780638da5cb5b146102215780639fa560e31461023f578063a08e8a3d1461025d57610100565b806349590657116100d357806349590657146101a15780636e838b9b146101bf578063715018a6146101db57806374b7cb23146101e557610100565b80631d3e890e146101055780632b7ac3f31461013557806332cf9991146101535780633a8b284914610171575b600080fd5b61011f600480360381019061011a9190610b95565b610303565b60405161012c9190610c5b565b60405180910390f35b61013d6103af565b60405161014a9190610cbe565b60405180910390f35b61015b6103d5565b6040516101689190610d97565b60405180910390f35b61018b60048036038101906101869190610b95565b61042d565b6040516101989190610dc8565b60405180910390f35b6101a9610451565b6040516101b69190610dc8565b60405180910390f35b6101d960048036038101906101d49190610f18565b61045e565b005b6101e36104eb565b005b6101ed6104ff565b6040516101fa9190610c5b565b60405180910390f35b61020b61058d565b6040516102189190610f7c565b60405180910390f35b6102296105a0565b6040516102369190610cbe565b60405180910390f35b6102476105c9565b6040516102549190610fb6565b60405180910390f35b61027760048036038101906102729190611031565b6105df565b005b610293600480360381019061028e9190610b95565b610787565b6040516102a09190610c5b565b60405180910390f35b6102b1610837565b6040516102be9190610fb6565b60405180910390f35b6102e160048036038101906102dc91906110bd565b61083c565b005b6102eb6108c0565b6040516102fa939291906110ea565b60405180910390f35b6009818154811061031357600080fd5b90600052602060002001600091509050805461032e90611150565b80601f016020809104026020016040519081016040528092919081815260200182805461035a90611150565b80156103a75780601f1061037c576101008083540402835291602001916103a7565b820191906000526020600020905b81548152906001019060200180831161038a57829003601f168201915b505050505081565b600260019054906101000a900473ffffffffffffffffffffffffffffffffffffffff1681565b6060600880548060200260200160405190810160405280929190818152602001828054801561042357602002820191906000526020600020905b81548152602001906001019080831161040f575b5050505050905090565b6008818154811061043d57600080fd5b906000526020600020016000915090505481565b6000600360010154905090565b6104666108d8565b600260009054906101000a900460ff16156104b6576040517f08c379a00000000000000000000000000000000000000000000000000000000081526004016104ad906111ce565b60405180910390fd5b80600190805190602001906104cc929190610a22565b506001600260006101000a81548160ff02191690831515021790555050565b6104f36108d8565b6104fd6000610956565b565b6001805461050c90611150565b80601f016020809104026020016040519081016040528092919081815260200182805461053890611150565b80156105855780601f1061055a57610100808354040283529160200191610585565b820191906000526020600020905b81548152906001019060200180831161056857829003601f168201915b505050505081565b600260009054906101000a900460ff1681565b60008060009054906101000a900473ffffffffffffffffffffffffffffffffffffffff16905090565b600a60009054906101000a900463ffffffff1681565b6105e76108d8565b6009838390918060018154018082558091505060019003906000526020600020016000909192909192909192909192509190610624929190610aa8565b50600373__$0c6eb7207c37accf1552a1c47686411ac0$__63168703fa9091836040518363ffffffff1660e01b8152600401610661929190611204565b60006040518083038186803b15801561067957600080fd5b505af415801561068d573d6000803e3d6000fd5b505050506008819080600181540180825580915050600190039060005260206000200160009091909190915055600a600081819054906101000a900463ffffffff16809291906106dc9061125c565b91906101000a81548163ffffffff021916908363ffffffff160217905550507f604f5a492f8c1622a2e239876074a13b33ec11384fe2b310339ece35e8eecac781600360010154604051610731929190611289565b60405180910390a17f9ed6bba91a3213fcd4171c5f056c0c2121710edbdd31b30e9b68a5563ad9fe97600a60009054906101000a900463ffffffff1660405161077a9190610fb6565b60405180910390a1505050565b60606009828154811061079d5761079c6112b2565b5b9060005260206000200180546107b290611150565b80601f01602080910402602001604051908101604052809291908181526020018280546107de90611150565b801561082b5780601f106108005761010080835404028352916020019161082b565b820191906000526020600020905b81548152906001019060200180831161080e57829003601f168201915b50505050509050919050565b601081565b6108446108d8565b600073ffffffffffffffffffffffffffffffffffffffff168173ffffffffffffffffffffffffffffffffffffffff1614156108b4576040517f08c379a00000000000000000000000000000000000000000000000000000000081526004016108ab90611353565b60405180910390fd5b6108bd81610956565b50565b60038060000154908060010154908060020154905083565b6108e0610a1a565b73ffffffffffffffffffffffffffffffffffffffff166108fe6105a0565b73ffffffffffffffffffffffffffffffffffffffff1614610954576040517f08c379a000000000000000000000000000000000000000000000000000000000815260040161094b906113bf565b60405180910390fd5b565b60008060009054906101000a900473ffffffffffffffffffffffffffffffffffffffff169050816000806101000a81548173ffffffffffffffffffffffffffffffffffffffff021916908373ffffffffffffffffffffffffffffffffffffffff1602179055508173ffffffffffffffffffffffffffffffffffffffff168173ffffffffffffffffffffffffffffffffffffffff167f8be0079c531659141344cd1fd0a4f28419497f9722a3daafe3b4186f6b6457e060405160405180910390a35050565b600033905090565b828054610a2e90611150565b90600052602060002090601f016020900481019282610a505760008555610a97565b82601f10610a6957805160ff1916838001178555610a97565b82800160010185558215610a97579182015b82811115610a96578251825591602001919060010190610a7b565b5b509050610aa49190610b2e565b5090565b828054610ab490611150565b90600052602060002090601f016020900481019282610ad65760008555610b1d565b82601f10610aef57803560ff1916838001178555610b1d565b82800160010185558215610b1d579182015b82811115610b1c578235825591602001919060010190610b01565b5b509050610b2a9190610b2e565b5090565b5b80821115610b47576000816000905550600101610b2f565b5090565b6000604051905090565b600080fd5b600080fd5b6000819050919050565b610b7281610b5f565b8114610b7d57600080fd5b50565b600081359050610b8f81610b69565b92915050565b600060208284031215610bab57610baa610b55565b5b6000610bb984828501610b80565b91505092915050565b600081519050919050565b600082825260208201905092915050565b60005b83811015610bfc578082015181840152602081019050610be1565b83811115610c0b576000848401525b50505050565b6000601f19601f8301169050919050565b6000610c2d82610bc2565b610c378185610bcd565b9350610c47818560208601610bde565b610c5081610c11565b840191505092915050565b60006020820190508181036000830152610c758184610c22565b905092915050565b600073ffffffffffffffffffffffffffffffffffffffff82169050919050565b6000610ca882610c7d565b9050919050565b610cb881610c9d565b82525050565b6000602082019050610cd36000830184610caf565b92915050565b600081519050919050565b600082825260208201905092915050565b6000819050602082019050919050565b610d0e81610b5f565b82525050565b6000610d208383610d05565b60208301905092915050565b6000602082019050919050565b6000610d4482610cd9565b610d4e8185610ce4565b9350610d5983610cf5565b8060005b83811015610d8a578151610d718882610d14565b9750610d7c83610d2c565b925050600181019050610d5d565b5085935050505092915050565b60006020820190508181036000830152610db18184610d39565b905092915050565b610dc281610b5f565b82525050565b6000602082019050610ddd6000830184610db9565b92915050565b600080fd5b600080fd5b7f4e487b7100000000000000000000000000000000000000000000000000000000600052604160045260246000fd5b610e2582610c11565b810181811067ffffffffffffffff82111715610e4457610e43610ded565b5b80604052505050565b6000610e57610b4b565b9050610e638282610e1c565b919050565b600067ffffffffffffffff821115610e8357610e82610ded565b5b610e8c82610c11565b9050602081019050919050565b82818337600083830152505050565b6000610ebb610eb684610e68565b610e4d565b905082815260208101848484011115610ed757610ed6610de8565b5b610ee2848285610e99565b509392505050565b600082601f830112610eff57610efe610de3565b5b8135610f0f848260208601610ea8565b91505092915050565b600060208284031215610f2e57610f2d610b55565b5b600082013567ffffffffffffffff811115610f4c57610f4b610b5a565b5b610f5884828501610eea565b91505092915050565b60008115159050919050565b610f7681610f61565b82525050565b6000602082019050610f916000830184610f6d565b92915050565b600063ffffffff82169050919050565b610fb081610f97565b82525050565b6000602082019050610fcb6000830184610fa7565b92915050565b600080fd5b600080fd5b60008083601f840112610ff157610ff0610de3565b5b8235905067ffffffffffffffff81111561100e5761100d610fd1565b5b60208301915083600182028301111561102a57611029610fd6565b5b9250929050565b60008060006040848603121561104a57611049610b55565b5b600084013567ffffffffffffffff81111561106857611067610b5a565b5b61107486828701610fdb565b9350935050602061108786828701610b80565b9150509250925092565b61109a81610c9d565b81146110a557600080fd5b50565b6000813590506110b781611091565b92915050565b6000602082840312156110d3576110d2610b55565b5b60006110e1848285016110a8565b91505092915050565b60006060820190506110ff6000830186610db9565b61110c6020830185610db9565b6111196040830184610db9565b949350505050565b7f4e487b7100000000000000000000000000000000000000000000000000000000600052602260045260246000fd5b6000600282049050600182168061116857607f821691505b6020821081141561117c5761117b611121565b5b50919050565b7f536368656d6120616c7265616479207365740000000000000000000000000000600082015250565b60006111b8601283610bcd565b91506111c382611182565b602082019050919050565b600060208201905081810360008301526111e7816111ab565b9050919050565b8082525050565b6111fe81610b5f565b82525050565b600060408201905061121960008301856111ee565b61122660208301846111f5565b9392505050565b7f4e487b7100000000000000000000000000000000000000000000000000000000600052601160045260246000fd5b600061126782610f97565b915063ffffffff82141561127e5761127d61122d565b5b600182019050919050565b600060408201905061129e6000830185610db9565b6112ab6020830184610db9565b9392505050565b7f4e487b7100000000000000000000000000000000000000000000000000000000600052603260045260246000fd5b7f4f776e61626c653a206e6577206f776e657220697320746865207a65726f206160008201527f6464726573730000000000000000000000000000000000000000000000000000602082015250565b600061133d602683610bcd565b9150611348826112e1565b604082019050919050565b6000602082019050818103600083015261136c81611330565b9050919050565b7f4f776e61626c653a2063616c6c6572206973206e6f7420746865206f776e6572600082015250565b60006113a9602083610bcd565b91506113b482611373565b602082019050919050565b600060208201905081810360008301526113d88161139c565b905091905056fea26469706673582212202ccb6a5f1a5f12c4ead1aace8630d8b13db0cf91645eaa0ff316cd33ecd20c4564736f6c63430008090033",
  "linkReferences": {
    "@zk-kit/incremental-merkle-tree.sol/IncrementalBinaryTree.sol": {
      "IncrementalBinaryTree": [
        {
          "length": 20,
          "start": 152
        },
        {
          "length": 20,
          "start": 2517
        }
      ]
    }
  },
  "deployedLinkReferences": {
    "@zk-kit/incremental-merkle-tree.sol/IncrementalBinaryTree.sol": {
      "IncrementalBinaryTree": [
        {
          "length": 20,
          "start": 1577
        }
      ]
    }
  }
}