{
  "_format": "hh-sol-artifact-1",
  "contractName": "CredentialsDB",
  "sourceName": "contracts/CredentialsDB.sol",
  "abi": [
    {
      "inputs": [],
      "stateMutability": "nonpayable",
      "type": "constructor"
    },
    {
      "anonymous": false,
      "inputs": [
        {
          "indexed": false,
          "internalType": "uint32",
          "name": "credentialNo",
          "type": "uint32"
        }
      ],
      "name": "CredentialSavedInRegister",
      "type": "event"
    },
    {
      "anonymous": false,
      "inputs": [
        {
          "indexed": false,
          "internalType": "uint256",
          "name": "leaf",
          "type": "uint256"
        },
        {
          "indexed": false,
          "internalType": "uint256",
          "name": "root",
          "type": "uint256"
        }
      ],
      "name": "LeafInserted",
      "type": "event"
    },
    {
      "anonymous": false,
      "inputs": [
        {
          "indexed": true,
          "internalType": "address",
          "name": "previousOwner",
          "type": "address"
        },
        {
          "indexed": true,
          "internalType": "address",
          "name": "newOwner",
          "type": "address"
        }
      ],
      "name": "OwnershipTransferred",
      "type": "event"
    },
    {
      "inputs": [],
      "name": "TREE_DEPTH",
      "outputs": [
        {
          "internalType": "uint32",
          "name": "",
          "type": "uint32"
        }
      ],
      "stateMutability": "view",
      "type": "function"
    },
    {
      "inputs": [],
      "name": "credentialsCounter",
      "outputs": [
        {
          "internalType": "uint32",
          "name": "",
          "type": "uint32"
        }
      ],
      "stateMutability": "view",
      "type": "function"
    },
    {
      "inputs": [
        {
          "internalType": "uint256",
          "name": "",
          "type": "uint256"
        }
      ],
      "name": "credentialsRegister",
      "outputs": [
        {
          "internalType": "string",
          "name": "",
          "type": "string"
        }
      ],
      "stateMutability": "view",
      "type": "function"
    },
    {
      "inputs": [],
      "name": "credentialsSchema",
      "outputs": [
        {
          "internalType": "string",
          "name": "",
          "type": "string"
        }
      ],
      "stateMutability": "view",
      "type": "function"
    },
    {
      "inputs": [],
      "name": "credentialsSchemaSet",
      "outputs": [
        {
          "internalType": "bool",
          "name": "",
          "type": "bool"
        }
      ],
      "stateMutability": "view",
      "type": "function"
    },
    {
      "inputs": [],
      "name": "getLeavesArray",
      "outputs": [
        {
          "internalType": "uint256[]",
          "name": "",
          "type": "uint256[]"
        }
      ],
      "stateMutability": "view",
      "type": "function"
    },
    {
      "inputs": [
        {
          "internalType": "uint256",
          "name": "",
          "type": "uint256"
        }
      ],
      "name": "leavesArray",
      "outputs": [
        {
          "internalType": "uint256",
          "name": "",
          "type": "uint256"
        }
      ],
      "stateMutability": "view",
      "type": "function"
    },
    {
      "inputs": [],
      "name": "owner",
      "outputs": [
        {
          "internalType": "address",
          "name": "",
          "type": "address"
        }
      ],
      "stateMutability": "view",
      "type": "function"
    },
    {
      "inputs": [],
      "name": "renounceOwnership",
      "outputs": [],
      "stateMutability": "nonpayable",
      "type": "function"
    },
    {
      "inputs": [
        {
          "internalType": "string",
          "name": "data",
          "type": "string"
        },
        {
          "internalType": "uint256",
          "name": "leaf",
          "type": "uint256"
        }
      ],
      "name": "saveCredential",
      "outputs": [],
      "stateMutability": "nonpayable",
      "type": "function"
    },
    {
      "inputs": [
        {
          "internalType": "string",
          "name": "schema",
          "type": "string"
        }
      ],
      "name": "setCredentialsSchema",
      "outputs": [],
      "stateMutability": "nonpayable",
      "type": "function"
    },
    {
      "inputs": [
        {
          "internalType": "address",
          "name": "newOwner",
          "type": "address"
        }
      ],
      "name": "transferOwnership",
      "outputs": [],
      "stateMutability": "nonpayable",
      "type": "function"
    },
    {
      "inputs": [],
      "name": "tree",
      "outputs": [
        {
          "internalType": "uint256",
          "name": "depth",
          "type": "uint256"
        },
        {
          "internalType": "uint256",
          "name": "root",
          "type": "uint256"
        },
        {
          "internalType": "uint256",
          "name": "numberOfLeaves",
          "type": "uint256"
        }
      ],
      "stateMutability": "view",
      "type": "function"
    },
    {
      "inputs": [
        {
          "internalType": "uint256",
          "name": "i",
          "type": "uint256"
        }
      ],
      "name": "viewArray",
      "outputs": [
        {
          "internalType": "string",
          "name": "",
          "type": "string"
        }
      ],
      "stateMutability": "view",
      "type": "function"
    }
  ],
  "bytecode": "0x60806040526000600260006101000a81548160ff021916908315150217905550600064010000000960006101000a81548163ffffffff021916908363ffffffff1602179055503480156200005257600080fd5b506200007362000067620000ed60201b60201c565b620000f560201b60201c565b600373__$0c6eb7207c37accf1552a1c47686411ac0$__631095fbb49091602060006040518463ffffffff1660e01b8152600401620000b59392919062000260565b60006040518083038186803b158015620000ce57600080fd5b505af4158015620000e3573d6000803e3d6000fd5b505050506200029d565b600033905090565b60008060009054906101000a900473ffffffffffffffffffffffffffffffffffffffff169050816000806101000a81548173ffffffffffffffffffffffffffffffffffffffff021916908373ffffffffffffffffffffffffffffffffffffffff1602179055508173ffffffffffffffffffffffffffffffffffffffff168173ffffffffffffffffffffffffffffffffffffffff167f8be0079c531659141344cd1fd0a4f28419497f9722a3daafe3b4186f6b6457e060405160405180910390a35050565b8082525050565b600063ffffffff82169050919050565b6000819050919050565b6000819050919050565b600062000205620001ff620001f984620001c0565b620001da565b620001d0565b9050919050565b6200021781620001e4565b82525050565b6000819050919050565b600062000248620002426200023c846200021d565b620001da565b620001d0565b9050919050565b6200025a8162000227565b82525050565b6000606082019050620002776000830186620001b9565b6200028660208301856200020c565b6200029560408301846200024f565b949350505050565b61139980620002ad6000396000f3fe608060405234801561001057600080fd5b50600436106100ea5760003560e01c80638da5cb5b1161008c578063bde7e56811610066578063bde7e56814610227578063f165053614610257578063f2fde38b14610275578063fd54b22814610291576100ea565b80638da5cb5b146101cf5780639fa560e3146101ed578063a08e8a3d1461020b576100ea565b80636e838b9b116100c85780636e838b9b1461016d578063715018a61461018957806374b7cb231461019357806376694ce4146101b1576100ea565b80631d3e890e146100ef57806332cf99911461011f5780633a8b28491461013d575b600080fd5b61010960048036038101906101049190610b19565b6102b1565b6040516101169190610bdf565b60405180910390f35b610127610358565b6040516101349190610cbf565b60405180910390f35b61015760048036038101906101529190610b19565b6103b0565b6040516101649190610cf0565b60405180910390f35b61018760048036038101906101829190610e40565b6103d4565b005b610191610461565b005b61019b610475565b6040516101a89190610bdf565b60405180910390f35b6101b9610503565b6040516101c69190610ea4565b60405180910390f35b6101d7610516565b6040516101e49190610f00565b60405180910390f35b6101f561053f565b6040516102029190610f3a565b60405180910390f35b61022560048036038101906102209190610fb5565b610559565b005b610241600480360381019061023c9190610b19565b610710565b60405161024e9190610bdf565b60405180910390f35b61025f6107bb565b60405161026c9190610f3a565b60405180910390f35b61028f600480360381019061028a9190611041565b6107c0565b005b610299610844565b6040516102a89392919061106e565b60405180910390f35b60098164010000000081106102c557600080fd5b0160009150905080546102d7906110d4565b80601f0160208091040260200160405190810160405280929190818152602001828054610303906110d4565b80156103505780601f1061032557610100808354040283529160200191610350565b820191906000526020600020905b81548152906001019060200180831161033357829003601f168201915b505050505081565b606060088054806020026020016040519081016040528092919081815260200182805480156103a657602002820191906000526020600020905b815481526020019060010190808311610392575b5050505050905090565b600881815481106103c057600080fd5b906000526020600020016000915090505481565b6103dc61085c565b600260009054906101000a900460ff161561042c576040517f08c379a000000000000000000000000000000000000000000000000000000000815260040161042390611152565b60405180910390fd5b80600190805190602001906104429291906109a6565b506001600260006101000a81548160ff02191690831515021790555050565b61046961085c565b61047360006108da565b565b60018054610482906110d4565b80601f01602080910402602001604051908101604052809291908181526020018280546104ae906110d4565b80156104fb5780601f106104d0576101008083540402835291602001916104fb565b820191906000526020600020905b8154815290600101906020018083116104de57829003601f168201915b505050505081565b600260009054906101000a900460ff1681565b60008060009054906101000a900473ffffffffffffffffffffffffffffffffffffffff16905090565b64010000000960009054906101000a900463ffffffff1681565b61056161085c565b8282600964010000000960009054906101000a900463ffffffff1663ffffffff16640100000000811061059757610596611172565b5b0191906105a5929190610a2c565b50600373__$0c6eb7207c37accf1552a1c47686411ac0$__63168703fa9091836040518363ffffffff1660e01b81526004016105e29291906111b7565b60006040518083038186803b1580156105fa57600080fd5b505af415801561060e573d6000803e3d6000fd5b505050506008819080600181540180825580915050600190039060005260206000200160009091909190915055640100000009600081819054906101000a900463ffffffff16809291906106619061120f565b91906101000a81548163ffffffff021916908363ffffffff160217905550507f604f5a492f8c1622a2e239876074a13b33ec11384fe2b310339ece35e8eecac7816003600101546040516106b692919061123c565b60405180910390a17f9ed6bba91a3213fcd4171c5f056c0c2121710edbdd31b30e9b68a5563ad9fe9764010000000960009054906101000a900463ffffffff166040516107039190610f3a565b60405180910390a1505050565b6060600982640100000000811061072a57610729611172565b5b018054610736906110d4565b80601f0160208091040260200160405190810160405280929190818152602001828054610762906110d4565b80156107af5780601f10610784576101008083540402835291602001916107af565b820191906000526020600020905b81548152906001019060200180831161079257829003601f168201915b50505050509050919050565b602081565b6107c861085c565b600073ffffffffffffffffffffffffffffffffffffffff168173ffffffffffffffffffffffffffffffffffffffff161415610838576040517f08c379a000000000000000000000000000000000000000000000000000000000815260040161082f906112d7565b60405180910390fd5b610841816108da565b50565b60038060000154908060010154908060020154905083565b61086461099e565b73ffffffffffffffffffffffffffffffffffffffff16610882610516565b73ffffffffffffffffffffffffffffffffffffffff16146108d8576040517f08c379a00000000000000000000000000000000000000000000000000000000081526004016108cf90611343565b60405180910390fd5b565b60008060009054906101000a900473ffffffffffffffffffffffffffffffffffffffff169050816000806101000a81548173ffffffffffffffffffffffffffffffffffffffff021916908373ffffffffffffffffffffffffffffffffffffffff1602179055508173ffffffffffffffffffffffffffffffffffffffff168173ffffffffffffffffffffffffffffffffffffffff167f8be0079c531659141344cd1fd0a4f28419497f9722a3daafe3b4186f6b6457e060405160405180910390a35050565b600033905090565b8280546109b2906110d4565b90600052602060002090601f0160209004810192826109d45760008555610a1b565b82601f106109ed57805160ff1916838001178555610a1b565b82800160010185558215610a1b579182015b82811115610a1a5782518255916020019190600101906109ff565b5b509050610a289190610ab2565b5090565b828054610a38906110d4565b90600052602060002090601f016020900481019282610a5a5760008555610aa1565b82601f10610a7357803560ff1916838001178555610aa1565b82800160010185558215610aa1579182015b82811115610aa0578235825591602001919060010190610a85565b5b509050610aae9190610ab2565b5090565b5b80821115610acb576000816000905550600101610ab3565b5090565b6000604051905090565b600080fd5b600080fd5b6000819050919050565b610af681610ae3565b8114610b0157600080fd5b50565b600081359050610b1381610aed565b92915050565b600060208284031215610b2f57610b2e610ad9565b5b6000610b3d84828501610b04565b91505092915050565b600081519050919050565b600082825260208201905092915050565b60005b83811015610b80578082015181840152602081019050610b65565b83811115610b8f576000848401525b50505050565b6000601f19601f8301169050919050565b6000610bb182610b46565b610bbb8185610b51565b9350610bcb818560208601610b62565b610bd481610b95565b840191505092915050565b60006020820190508181036000830152610bf98184610ba6565b905092915050565b600081519050919050565b600082825260208201905092915050565b6000819050602082019050919050565b610c3681610ae3565b82525050565b6000610c488383610c2d565b60208301905092915050565b6000602082019050919050565b6000610c6c82610c01565b610c768185610c0c565b9350610c8183610c1d565b8060005b83811015610cb2578151610c998882610c3c565b9750610ca483610c54565b925050600181019050610c85565b5085935050505092915050565b60006020820190508181036000830152610cd98184610c61565b905092915050565b610cea81610ae3565b82525050565b6000602082019050610d056000830184610ce1565b92915050565b600080fd5b600080fd5b7f4e487b7100000000000000000000000000000000000000000000000000000000600052604160045260246000fd5b610d4d82610b95565b810181811067ffffffffffffffff82111715610d6c57610d6b610d15565b5b80604052505050565b6000610d7f610acf565b9050610d8b8282610d44565b919050565b600067ffffffffffffffff821115610dab57610daa610d15565b5b610db482610b95565b9050602081019050919050565b82818337600083830152505050565b6000610de3610dde84610d90565b610d75565b905082815260208101848484011115610dff57610dfe610d10565b5b610e0a848285610dc1565b509392505050565b600082601f830112610e2757610e26610d0b565b5b8135610e37848260208601610dd0565b91505092915050565b600060208284031215610e5657610e55610ad9565b5b600082013567ffffffffffffffff811115610e7457610e73610ade565b5b610e8084828501610e12565b91505092915050565b60008115159050919050565b610e9e81610e89565b82525050565b6000602082019050610eb96000830184610e95565b92915050565b600073ffffffffffffffffffffffffffffffffffffffff82169050919050565b6000610eea82610ebf565b9050919050565b610efa81610edf565b82525050565b6000602082019050610f156000830184610ef1565b92915050565b600063ffffffff82169050919050565b610f3481610f1b565b82525050565b6000602082019050610f4f6000830184610f2b565b92915050565b600080fd5b600080fd5b60008083601f840112610f7557610f74610d0b565b5b8235905067ffffffffffffffff811115610f9257610f91610f55565b5b602083019150836001820283011115610fae57610fad610f5a565b5b9250929050565b600080600060408486031215610fce57610fcd610ad9565b5b600084013567ffffffffffffffff811115610fec57610feb610ade565b5b610ff886828701610f5f565b9350935050602061100b86828701610b04565b9150509250925092565b61101e81610edf565b811461102957600080fd5b50565b60008135905061103b81611015565b92915050565b60006020828403121561105757611056610ad9565b5b60006110658482850161102c565b91505092915050565b60006060820190506110836000830186610ce1565b6110906020830185610ce1565b61109d6040830184610ce1565b949350505050565b7f4e487b7100000000000000000000000000000000000000000000000000000000600052602260045260246000fd5b600060028204905060018216806110ec57607f821691505b60208210811415611100576110ff6110a5565b5b50919050565b7f536368656d6120616c7265616479207365740000000000000000000000000000600082015250565b600061113c601283610b51565b915061114782611106565b602082019050919050565b6000602082019050818103600083015261116b8161112f565b9050919050565b7f4e487b7100000000000000000000000000000000000000000000000000000000600052603260045260246000fd5b8082525050565b6111b181610ae3565b82525050565b60006040820190506111cc60008301856111a1565b6111d960208301846111a8565b9392505050565b7f4e487b7100000000000000000000000000000000000000000000000000000000600052601160045260246000fd5b600061121a82610f1b565b915063ffffffff821415611231576112306111e0565b5b600182019050919050565b60006040820190506112516000830185610ce1565b61125e6020830184610ce1565b9392505050565b7f4f776e61626c653a206e6577206f776e657220697320746865207a65726f206160008201527f6464726573730000000000000000000000000000000000000000000000000000602082015250565b60006112c1602683610b51565b91506112cc82611265565b604082019050919050565b600060208201905081810360008301526112f0816112b4565b9050919050565b7f4f776e61626c653a2063616c6c6572206973206e6f7420746865206f776e6572600082015250565b600061132d602083610b51565b9150611338826112f7565b602082019050919050565b6000602082019050818103600083015261135c81611320565b905091905056fea2646970667358221220a06726700e704d18979b58838b6c4a0ff698e1879b039bc3dafaac49d11d186d64736f6c63430008090033",
  "linkReferences": {
    "@zk-kit/incremental-merkle-tree.sol/IncrementalBinaryTree.sol": {
      "IncrementalBinaryTree": [
        {
          "length": 20,
          "start": 119
        },
        {
          "length": 20,
          "start": 2135
        }
      ]
    }
  },
  "deployedLinkReferences": {
    "@zk-kit/incremental-merkle-tree.sol/IncrementalBinaryTree.sol": {
      "IncrementalBinaryTree": [
        {
          "length": 20,
          "start": 1450
        }
      ]
    }
  }
}